:020000040800F2
:1030000010100020997900083579000837790008F8
:1030100000000000000000000000000000000000B0
:1030200000000000000000000000000039790008E6
:1030300000000000000000003B7900083D79000816
:103040000F4C00080000000017500008D35A000879
:10305000036000085D7900083B600008AB6D000864
:1030600000000000E3760008837A00088F7A0008E9
:10307000D97A0008DB7A0008DD7A00080000000039
:10308000DF7A00080000000000000000E17A00087C
:1030900000000000E37A0008E57A0008E77A0008FB
:1030A00000000000E97A000800000000EB7A000848
:1030B0006779000800000000000000007179000836
:1030C000F0B585B0070001D101204BE0AA208000B7
:1030D0003E1800257078002803D13570380000F0C4
:1030E00057FE03207070386801F021F80020012499
:1030F0000EE028214143791829228C542823C854F2
:10310000C8862B23CD548D63CD630D64401CC0B2A3
:1031100079688842EDD300200DE0282141437918D9
:10312000B422520089184D700870CD700D614D6148
:103130008D61401CC0B279688842EED3391D83B0DE
:103140006846202201F03CFD0EBC386800F0F7FF15
:1031500024203D547470F869012802D1380001F030
:1031600078FD002005B0F0BD38B5040008D008484F
:10317000251803202870206801F0B8FC002801D031
:10318000012032BD200000F01CFE0020287032BD5E
:10319000A902000038B50400AA208000251828786C
:1031A000012801D1022032BD01202870206800F0E2
:1031B000B7FF206801F0AAFC0020287032BD38B5A6
:1031C0000400AA20800025182878012801D10220B7
:1031D00032BD01202870206800F0A9FF206801F0AE
:1031E0009CFC0020287032BDF8B586B00500286828
:1031F00001F09BFC000400D5C7E0286801F095FCB5
:1032000040050DD528684421415AD04A0A4044213E
:103210004252280000F025FE0021280000F0AEFCFC
:10322000286801F082FC400406D528684421415AF0
:10323000C74A0A4044214252286801F076FC8004C3
:1032400006D528684421415AC24A0A4044214252C4
:10325000B82080002F18286801F067FCC0041FD533
:1032600028684021415ABC4A0A40402142522868FD
:10327000415ABA4A0A40402142523878012805D1C1
:10328000002038700021280001F0F5FC280000F033
:1032900014FE28684421415AB14A0A40442142524E
:1032A00004240826286801F040FC000516D528688B
:1032B0004021415A08220A434021425228684421B1
:1032C000415AA84A0A404421425228684021415AA2
:1032D000214340228152280000F0DAFD286801F0E5
:1032E00024FC000623D528684421415ACC4A0A40D0
:1032F000442142523878002801D000F019FC286897
:103300004021415A0C43402144522868415A0E43FF
:10331000402146520120387028685421405A8008C4
:103320003C21014079600121280001F0A4FC00F05B
:1033300002FC28680088CC4901400C4328680480BE
:1033400028685021415A2822AA5CD20089180818FE
:10335000C649401800888005800D6864E96B08182C
:10336000E8630021280000F060FD2420285C00288C
:103370000BD0286C002808D12420285C064328683C
:103380004C214652002024216854286880242402BD
:103390004421415A214200D12FE74421415A0A07D2
:1033A000120F03928026002A76D1C906C1D529685A
:1033B0000988B4225200AF180A051BD55021415A82
:1033C0003A78D20089180918A94A891809888B0502
:1033D0009B0DFB61FA88AC218900691801F0DCFBC8
:1033E00028680188A34A0A4016430680280000F096
:1033F000F7FCCAE72140C8D0286800889D490140F1
:103400000E43286806802868994E5021415A3A7820
:10341000D20089180918891909888B059B0DFB6151
:103420000DD0796900290AD0FA8801F0B5FB7869D6
:10343000F969401878610021280000F0DBFC286859
:1034400000880005A1D428685022815A40188019AC
:103450003969002905D10188874A0A40028001881C
:103460000DE03F2906D24A08C90700D5521C910237
:10347000018006E04A09C90600D1521E91020C43A0
:103480000480286801887D4A0A40C0218901514092
:103490007B4A0A43028078E728689100405A0290EC
:1034A000039828214843281805900298204000D10D
:1034B00014E190002968095A6E4A0A40802111439C
:1034C0002A6811520598B42149004718387B002812
:1034D00014D128685021415A3A78D2008918091825
:1034E000634A891809888905890D6A46118000D1C7
:1034F000DBE069460B88FA887969D4E0F87802281D
:1035000000D08FE00299B869049008004022104072
:103510006A46107028680190002049043978019AA1
:1035200042D55023D25ACB00D218019BD2184F4B10
:10353000D21812889205920D0192049A019B9A4228
:1035400012D30498C01AB8611AD10EE0FFFB000034
:10355000FFBF0000FFDF0000FBFF0000F7FF0000DF
:10356000FFEF0000FFF70000B861286889004018ED
:103570000188424A0A40A1085140414A0A43028058
:1035800068460078002809D02868397889004018F2
:103590000188CC4A0A40CC49114301800198002897
:1035A0003AD083B23A8933E05023D25ACB00D218B2
:1035B000019BD2182E4BD21812889205920D0192BF
:1035C000049A019B9A4204D30498C01AB8610CD1A2
:1035D00000E0B8612868890040180188274A0A403D
:1035E000A1085140264A0A43028068460078002814
:1035F00009D128683978890040180188B14A0A4001
:10360000B149114301800198002805D083B27A891D
:103610007969286801F0C0FA01986946088044E099
:103620007FFF0000387880002968095AA54A0A40BF
:10363000A54911432A6811523878A4492A688300A1
:10364000D25A52042A681DD55023D25AC0001018ED
:103650002A688018CA1C80180088014068460180CA
:1036600023D00B463A891CE00F8F000002040000B3
:10367000060400008F0F0000FF8300008FBF0000D2
:10368000808000005023D25AC00010182A68801889
:103690008F4A8018008801406846018005D00B469B
:1036A0007A897969286801F077FA68460088F969AB
:1036B0000918F96179696A46128889187961B969C6
:1036C000002907D03969884204D33900286800F0FE
:1036D00035FF03E03978280000F08CFB02980640A3
:1036E0006FD0059E28362868039989004018018804
:1036F000C94A0A40210011430180C848F1780229D3
:103700003DD00021B161029A520618D57278002A84
:1037100009D1296850228A5A89183278D20089182A
:10372000BF4A891818E0012A4ED128685022825ACF
:1037300080183278D2008018B94A80181DE02A68B3
:1037400000927778624B002F0DD15021515A5118B9
:103750003278D2008918C9180A8810400880088871
:1037600004430C8030E0012F2ED110465024125B10
:1037700080183278D2008018C018018024E0B26925
:10378000296801910299C90523D401985021405A12
:103790003178C900401801994018A14940180088A3
:1037A0008005800D90420DD2111AB1610CD0716963
:1037B00009187161F1690818F0613100286800F09A
:1037C000BDFEE2E50020B0613178280000F02DFB5D
:1037D000DBE502996B46198069460F8861080F4046
:1037E000694609884906317819706946097800D414
:1037F000C2E0C900029101995023C95A029BC9181D
:10380000019BC918864BC91809888905890D019142
:10381000914223D2511AB16122D0002F0AD02968D7
:103820006A461278920089180A88264B1340BF4ACC
:103830001A430A802421715C012900D06CE171696E
:10384000019A891800917161F169019A8918F161F1
:103850003369326A9A4251D3D11A59E00021B161D9
:10386000717800290ED1296850228A5A8918029A43
:103870008918C9180A8802400A800A88230013435D
:103880000B800AE0012931D1296850228A5A89180F
:10389000029A8918C91800220A802A68009273784F
:1038A0000B49002B16D15023D35AD2183378DB00A2
:1038B000D21851180A8810400880088804430C80E8
:1038C00014E000BF8F8F0000C0800000FF030000E5
:1038D00006040000012B09D110465023D25A80184B
:1038E0003278D200801840180021018031782800F9
:1038F00000F09BFA002F00D10EE1C4E00021002A65
:1039000003D1019B2422B15403E02427F155130075
:1039100031627178002920D1296850228A5A891889
:103920003278D20089183E4A8918002B04D10A88BF
:103930001040088008880DE03F2B06D25808DA07AF
:1039400000D5401C8002088013E05809DA0600D137
:10395000401E800204430C800BE0012909D1286835
:103960005021415A40183178C90040182C4940185C
:1039700003809BB23289CBE0C900029101995023A8
:10398000C95A029BC918019BC918794BC9180988E3
:103990008905890D01910021019B9A4223D3D21AF6
:1039A000B26121D0002F0AD12A686B461B789B0098
:1039B000D21817886F4B3B405C4F1F43178024225F
:1039C000B25C012A5ED17269019BD21800927261C9
:1039D000F269019BD218F2613369326A9A425DD36F
:1039E000D11A316262E0B1617278002A1AD12A6874
:1039F0005023D35AD218029BD218094BD2180092E6
:103A000012880240009B1A80009A138822001A43F1
:103A1000009B1A8011E000BF0F8F0000FF830000A1
:103A200002040000012A28D12A685023D35AD21850
:103A3000029BD218504BD21811802A6800927378DA
:103A4000002B0ED15021515A51183278D2008918CA
:103A5000474A89180A8810400880088804430C8067
:103A60000BE0012B09D110465023D25A801832782E
:103A7000D20080183E4A801801803178280000F07A
:103A8000D4F9002F48D1286831788900401801887E
:103A9000384A0A402549114301803DE0002A01D1FE
:103AA000019B01E0130031622422B15429680A000D
:103AB0007778002F1FD15027C95B51183278D20078
:103AC00089182B4A8918002B04D10A8810400880D5
:103AD00008880DE03F2B06D25808DA0700D5401CB5
:103AE0008002088012E05809DA0600D1401E8002E8
:103AF00004430C800AE0012F08D15020085A101806
:103B00003178C90040181A49401803809BB2728965
:103B10000099286801F02EF828683178890040184B
:103B20000188984A0A403021B1E400BF80C00000FB
:103B3000280000F0ADF9286800F0F7FF800509D5EE
:103B400028684421415A904A0A40442142522800A0
:103B500000F077F9286800F0E8FFC00506D528686E
:103B60004421415A894A0A404421425207B0F0BDDB
:103B7000060400008F8F00000204000010B5AA2286
:103B8000920084182278012A01D1022010BD01225E
:103B9000227024228154006800F0B1FF00202070C0
:103BA00010BDF1B507250C002C40282674430019E0
:103BB000012600240F0602D52830467003E0B42702
:103BC0007F00C01944700D4005700261C3704178D8
:103BD000002901D00178C181022B00D10471009924
:103BE000AA2292008D182978012901D10220F2BD64
:103BF0002E7001000098006800F0ACFA2C700020D4
:103C0000F2BD70B50A00072319402824614341180A
:103C100001260024150602D528314E7003E0B42594
:103C20006D0049194C7013400B70AA229200851840
:103C30002A78012A01D1022070BD2E70006800F0A0
:103C4000D3FB2C70002070BD70B5140007250A004E
:103C50002A40282672438218B426760092195461AD
:103C600093610023D36153700D40157000681100FB
:103C700000F064FC002070BD4907490F2822514321
:103C80004018C221490040587047F8B51400072574
:103C90000A002A4028267243821828325461936110
:103CA00001242427D45513620023D36154700D409E
:103CB00015700068110000F041FC0020F2BD70B5E5
:103CC0000A000723194044688C4201D2012070BDCC
:103CD00001260024150605D52825694341182831F9
:103CE0004E7007E01100282569434118B4256D0086
:103CF00049194C708E7013400B70AA2292008518DF
:103D00002A78012A01D1022070BD2E70006800F0CF
:103D10009FFE2C70002070BD70B50A0043680C0730
:103D2000240FA34201D2012070BD0723194028248B
:103D30006143411801260024150602D528314E7032
:103D400003E0B4256D0049194C708C7013400B7062
:103D5000AA22920085182A78012A01D1022070BD7A
:103D60002E70006800F08CFE2C70002070BD80B5B5
:103D7000006800F0DDFE02BD80B5006800F0DDFEE9
:103D800002BD0000BF8F0000FFFD0000FFFE00002D
:103D900000687749884200D0704780B580200004D1
:103DA000B0490A6802430A60096808400090009818
:103DB000002200211F2000F07CFF1F2000F07DFF6B
:103DC00001BD00686A49884200D0704780B5A548A7
:103DD0000168A54A0A4002601F2000F077FF01BD7C
:103DE00080B5AC2189004118BC229200805800F0B7
:103DF000F3FF01BD70B505000C00BC2080002E183B
:103E000030689A49405C092803D1200001D101F0B3
:103E100027FE2000282148432818BE214900425887
:103E20002100306801F005F870BD80B50A00282334
:103E30005A438218D26BBC239B00C05801F03BF858
:103E400001BD80B5BC218900405801F0D2F88848F6
:103E5000017808220A4302700178FB220A400270AE
:103E600001BD10B5040082480178DF220A400270CB
:103E7000A068022801D001F027FEBC208000241891
:103E80000121206801F09FF8206801F073F810BD4F
:103E900010B50400BC208000205801F097F8744849
:103EA000017820220A430270A069002804D07148DA
:103EB000016806220A43026010BD38B504006C4850
:103EC000017804220A4302700178DF220A4002705E
:103ED000694DA069002809D02868002806D16548E6
:103EE000016806229143016001F026FCBC2080009D
:103EF000205801F074F80020286031BD38B5010069
:103F0000802424065D480460BFF34F8FBFF36F8F9A
:103F10005B48BC2292008150303A8D1828601449C9
:103F2000016005214160022181600322C2600161BC
:103F300000218161C161FFF7C3F8002801D001F0C1
:103F4000C3FD182300220021286800F061FE5823D9
:103F500000228021286800F05BFEE30D0022812111
:103F6000286800F055FE47480460002032BD00007C
:103F7000005C004080B5B02189004058FFF7F4F89C
:103F800000F085F802BD80B5B02189004058FFF7E8
:103F900001F900F07CF802BD80B5B02189004058DD
:103FA000FFF70DF900F073F802BD10B514001A0008
:103FB0002300B024A4000059FFF7F3FD00F067F8D8
:103FC00010BD80B5B02292008058FFF71AFE00F0B5
:103FD0005EF802BD80B5B02292008058FFF76FFEF8
:103FE00000F055F802BD80B5B02292008058FFF76E
:103FF00093FE00F04CF802BDB022920080584A06B1
:10400000520E28235A438018090601D52A2101E0BF
:10401000B5214900405C704780B5B02292008058BD
:10402000FFF7ACFD00F033F802BD10B5B024A400DA
:104030000059FFF72AFE00F02AF810BD10B5B02491
:10404000A4000059FFF700FE00F021F810BD80B574
:10405000B02292008058FFF70FFE02BD0A48704759
:10406000000000001C100240FFFF7FFFA9020000BB
:10407000C000002010ED00E0040C002080E100E012
:104080000C03002000E100E0EC0B00207047010071
:104090000020002904D0022901D10120704702200C
:1040A0007047F1B401684218416848081318009835
:1040B0008068C9071ED5494640181BE01778521C76
:1040C0000770401C761EF9D1002C13D01678521CB4
:1040D00089080D40032D01D11578521C2902711851
:1040E0004D424119A41C05D00D78491C0570401C97
:1040F000641EF9D19A420FD01178521C0325032671
:104100000E4002D11678F61C521C0C090F2CD9D186
:1041100014780F34521CD5E700980C30F2BC70476D
:10412000403000218180A949018000207047402152
:10413000415AA74A0A4040214252002070470EB41B
:104140004030012101800021018081800182002016
:1041500003B07047FCB500226B465A700A78920093
:1041600083181A889B4C1440CA78002A05D0022A6A
:1041700012D009D3032A04D00BE022008024A4002B
:1041800005E02200C02401E022008024E400144362
:1041900002E001226D466A708F4A14431C800B783E
:1041A0009C00041925888D4E2E401E431643268000
:1041B0000B786C462370C0239B012024884D0E7B16
:1041C000002E6E46367866D1F6000196CF88854E71
:1041D0003E404F78002F1FD05023C35AC318019F71
:1041E000DB196701DB191E800B789B00C3181E8842
:1041F000760605D51F88794E3E40C64F37431F804F
:104200000B789B00C018C9780129018800D1A4E06F
:104210000D406C402243D4E05024045B0419019DFE
:1042200064195509641926805024045B04190D781B
:10423000ED006419B84D64190D6980263602002D11
:1042400005D12588B54F2F40278025880DE03F2DCB
:1042500006D26E08ED0700D5761CB502258006E073
:104260006F09ED0600D17F1EBD022E4326800C781B
:10427000A400041925886D0405D52588574E2E40C5
:10428000A74D354325800978890040180188A54C41
:104290000C40634094E0B60086190196CE78022E59
:1042A000019E378806D14D4E3E409F4F3743019EB9
:1042B000378004E09D4E3E401643019F3E805026CD
:1042C000865B6F467E806E46768887190E78F6008C
:1042D000BF196601BF19BC460F89424E3E40674672
:1042E0003E805026865B86190F78FF00F619570925
:1042F000F719BC464F893B4E3E4067463E800E78DC
:10430000B600861901964E78002E29D1019C268888
:10431000324C760406D5019E37882740804E3E43B6
:10432000019F3E800E78B600861901963688760683
:1043300006D5019E36883440764E2643019C268061
:104340000C78A40004192688764F37407B4013432D
:10435000238009788900401801880D402A4330E005
:10436000019B1E881D4B760406D5019E37881F4091
:104370006B4E3E43019F3E800E78B6008619019633
:104380003688760606D5019E36883340614E1E4338
:10439000019B1E800B789B00C318CE78012E05D0A0
:1043A0001E8835406C4014431C8003E01C88254067
:1043B00015431D800978890040180188594B0B402E
:1043C0001A43028068464078F6BD000080BF0000B6
:1043D0007F4000008F890000808000008F8F0000E8
:1043E000BF8F0000FEFF0000F2B582B0097889009F
:1043F00041180091029949786A461171494D4C491A
:104400004C4A444B4C4C029E367B002E6E4636790D
:1044100017D1002E0AD0009D2D886D063CD5009D39
:104420002D882C402343009C238035E0009A12887D
:10443000520465D5009A12881440394A2243009BE1
:104440005DE0002E009E36882ED1760406D5009EB3
:1044500037882740324E3E43009F3E80029E36788A
:10446000B600861900963688760605D5009E3688F1
:1044700026401E43009F3E80029E3678B600861975
:1044800037883C4023433380029B1B789B00C31832
:104490001C8825400D431D80029B1B789B00C01883
:1044A00003881A40114332E06F46BE806E46B688DC
:1044B000760406D5009E37882740194E3E43009F5C
:1044C0003E80029E3678B6008619009636887606BB
:1044D00005D5009E368826403343009E3380029BDC
:1044E0001B789B00C3181E8834400D4E26431E8047
:1044F000029B1B789B00C3181C8822400A431A8029
:10450000029A12789200801802881540294301808F
:104510000020FEBDC080000006040000FF830000F4
:1045200080C000008FBF0000808100008F8E0000DF
:1045300080800000BF8F00008F8F0000F1B584B035
:104540000F003B7B7878049C80252D02012800D049
:1045500058E1386902903E69B869864200D9060080
:10456000002B10D1B3B2FA887969204600F002FB23
:1045700004985021405A20183978C9004018B84989
:104580004018068035E13878694608700498097843
:10459000890040180190386AF978022900D007E1B3
:1045A0000299814200D3F2E001990988AD4A0A409C
:1045B000AD491143019A1180801B38627878F10768
:1045C000C90F00913978049A8B00D25A52066FD5E0
:1045D0000194BB4A00281FD104985023C05A2018C8
:1045E000C90040188018002E05D10188B54A0A403C
:1045F000028001880DE03F2E06D27108009A002A41
:1046000000D0491C890205E07109F20600D1491E5B
:1046100089022943018009E0012807D10498502329
:10462000C05A2018C900401880180680B3B27A8991
:104630007969049800F09EFA786980197861386A7F
:104640003969814201D2801B01E0060000203862F6
:1046500079788348002920D104995022895A611819
:104660003A78D20089180818002E05D10188954A99
:104670000A40028001880DE03F2E06D27108F20741
:1046800000D5491C89020180ADE07109F20600D114
:10469000491E89020D430580A5E00129FCD104993A
:1046A0005022895A61183A78D2008918081899E07E
:1046B0006B4A00281FD104985023C05A2018C90003
:1046C00040188018002E05D101887E4A0A400280D9
:1046D00001880DE03F2E06D27108009A002A00D012
:1046E000491C890205E07109F20600D1491E8902C0
:1046F0002943018009E0012807D104985023C05ABA
:104700002018C900401880180680B3B23A89796928
:10471000049800F02FFA786980197861386A39694D
:10472000814201D2801B01E00600002038627978C6
:104730006348002920D104995022895A61183A7897
:10474000D20089180818002E05D101885D4A0A4058
:10475000028001880DE03F2E06D27108F20700D5D5
:10476000491C8902018034E07109F20600D1491E1A
:1047700089020D4305802CE001292AD10499502299
:10478000895A61183A78D2008918081820E0060082
:1047900001980088AC490140AC4808430199088061
:1047A00004985021405A20183978C900401817E061
:1047B000801B386268460078C00001990988490664
:1047C000049909D55022895A611808183C494018A3
:1047D0000680B3B27A8908E05022895A6118081815
:1047E0001F4940180680B3B23A897969049800F0ED
:1047F000C1F9049839788900401801889F4A0A4015
:10480000302126E000210122002B3ED1BB6938690E
:10481000984201D2191A00E01800B9610499502396
:10482000C95A61183B78DB00C918254BC918002804
:104830001CD10888234A02400A80088805430D805D
:1048400004983978890040180188A74A0A40C02195
:10485000890151407D4A0A430280002005B0F0BD25
:10486000020400008F8F0000808100003F2806D2E4
:104870004308024000D05B1C98020880E0E7420930
:10488000C00600D1521E9002D8E7FB78022B73D1EC
:104890001F210C4B002827D15026A05B20183E7802
:1048A000F6008019A94E80190090386900280BD1B4
:1048B000009800881840009E30800098008810E022
:1048C00006040000FF8300003F2805D24608104080
:1048D00000D0761CB00205E04609084000D1761EE3
:1048E000B0022843009E30807878002821D10498B7
:1048F0005026805B20183C78E4000019944C041981
:104900003869002804D120880340238020880DE0E6
:104910003F2806D24108024000D0491C880220806E
:1049200014E04209014000D1521E90020543258047
:104930000CE001280AD104985021405A20183978F7
:10494000C90040188249401839690180F869002877
:1049500011D0049839788900401801887D4A1300E5
:104960000B40934201D00A4005D101887A4A0A409F
:104970007A491143018063E7012B62D1BB693E692B
:104980009E4201D2991B00E01E00B96132400192A3
:104990001F21734A002823D104985023C05A20189D
:1049A0003B78DB00C018694BC0180090002E06D180
:1049B00000881040009B1880009800880DE03F2E72
:1049C00006D27008019B002B00D0401C800205E03D
:1049D00070090E4200D1401E80022843009B1880BF
:1049E0007878002820D104985023C05A20183B78AA
:1049F000DB00C018564BC018002E06D101880A40B3
:104A0000028001880D4305801AE73F2E06D2710807
:104A1000019A002A00D0491C8902ABE77209314093
:104A200000D1521E9102EDE7012809D104985021CE
:104A3000405A20183978C900401845494018068066
:104A4000FEE601200AE700008F8E00008080000053
:104A50000A7892008018434A49780029018803D0D7
:104A6000064B0B40102103E01F4B0B4080214901F6
:104A700059400A430280002070470000BF8F0000A9
:104A800030B50A7B002A2CD10A7892008318354A67
:104A9000314C4D78002D1D8811D06D0604D51D8830
:104AA0002C402E4D25431D80CB78012B19D0097841
:104AB0008900401801882C4B0B4020210EE06D042A
:104AC00004D51D882C40294D25431D800978890077
:104AD00040180188044B0B40C021890159400A430A
:104AE0000280002030BD00008FBF00004030012157
:104AF000018000218180032101800020704700296E
:104B000002D180214C228152002070475821415A05
:104B1000802212020A43582114E05821415A4904C4
:104B2000490C58228152002070474421405A704756
:104B30004021415A10220A4303E04021415A0C4AC5
:104B40000A40402142520020704700000204000049
:104B500006040000404000008F8F0000C08000006D
:104B6000FF83000080800000BF8F000080C0000035
:104B7000EFFF000010B580188022D20080185B1C67
:104B80005A0807E00B784C7824021C430480801CF0
:104B9000891C521EF6D110BD10B580188022D2009B
:104BA00080185A0806E00488801C0C70240A4C7097
:104BB000891C521EF7D1DA0701D50088087010BD94
:104BC00070B4103A03D378C9103A78C0FBD25307B7
:104BD00001D318C918C001D508C908C0D20704D329
:104BE0000B880380891C801C002A01D50B78037078
:104BF00070BC70478B0701D18307E1D0124205D00A
:104C00000B78491C0370401C521EF9D17047FEE717
:104C100010B50C0606D54907490F282461434018F2
:104C2000283005E028244C430019B42149004018DD
:104C3000002A03D100210173C38004E00121017324
:104C40000381190C4181002010BD58200A52002018
:104C500070470168B8229200801801228260002308
:104C600003705420085A024354200A52085A022260
:104C700002435420EAE7704710B5C20018231340DE
:104C8000FF249C40E2438907090E9940030004D4A5
:104C900023489B089B00C01806E0224B0007000F2A
:104CA000083880088000181803681A401143016012
:104CB00010BD80B5FFF7E0FF01BD010005D4012163
:104CC000C006C00E8140184801607047010009D439
:104CD0000121C006C00E814014480160BFF34F8F10
:104CE000BFF36F8F7047BFF34F8F114811490860B2
:104CF000BFF34F8F00BFFDE710B5401E8021490470
:104D0000884201D3012010BD0B4C606003210020BC
:104D1000C043FFF7B1FF0020A0600721216010BD54
:104D200000E400E01CED00E000E100E080E100E0D4
:104D30000400FA050CED00E010E000E010B50028DA
:104D400001D1022010BDA7239B00C3189C69002C31
:104D500001D000249C61002900D059610121197003
:104D60000270FFF7CBF8002010BD10B50400A7209B
:104D700080002218012010706168C9B22000926979
:104D8000526890472000FFF707F92000FFF7F2F87C
:104D9000002010BD02000020002903D0AD239B009D
:104DA000D15070470220704780B5FFF7ECF8002023
:104DB00002BD10B50224AD2292008258002A04D010
:104DC00012689047002800D10024200010BD80B553
:104DD000AD22920082581AE138B50400AA20800062
:104DE0002518280001F08EF8A52080002018012148
:104DF0000160418B4160017DC806C00E03D00228CE
:104E00000BD005D30EE02900200000F063FE0EE079
:104E10002900200000F0A6FF09E02900200000F092
:104E2000CBFF04E0802001402000FFF7D3F80020F2
:104E300032BD38B504001000A5229200A3180A0064
:104E40002CD11968032920D1B021490061184A6882
:104E50000D68AA420BD2AB1A0B60934200D21A0023
:104E600092B20100200001F0B0F8002032BD196AB2
:104E70000869002805D0187A032802D120000969A2
:104E80008847200001F0A5F8EFE70529EDD10020C3
:104E9000186000212000FFF79DF8E6E71A6A906984
:104EA000002806D0187A032803D120009269904781
:104EB000DBE7022032BDF8B504001000A522920005
:104EC000A5180A0049D129680026022937D1216A8C
:104ED000626A00928A4207D28A1A226292B2010062
:104EE000200001F05DF811E0E7693800114601F09B
:104EF00089F8002911D1009887420ED3686887424B
:104F00000BD20022200001F04BF86E60002300223B
:104F100000212000FFF792F819E0296AC8680028EC
:104F200005D0287A032802D12000C968884780214B
:104F30002000FFF74FF8200001F057F807E00429A0
:104F400001D0002903D180212000FFF743F8287BFE
:104F5000012800D12E730020F2BD2A6A5069002872
:104F600006D0287A032803D1200052699047F2E73F
:104F70000220F2BD70B50400082300220021FFF7D3
:104F800014F8AC2040002018012505600826C660F2
:104F90000823002280212000FFF707F8A561666240
:104FA000A52080002218157200201060606010613A
:104FB000506A002805D06168C9B22000126A5268A0
:104FC0009047002070BD017400207047A721890020
:104FD0004018017841700421017000207047A7211A
:104FE000890040180178042901D14178017000201E
:104FF000704780B5A721890041180A78032A04D197
:105000008969C969002900D08847002002BD52681B
:105010009047002002BDFEE7010005D40121C00633
:10502000C00E8140074801607047010009D401218A
:10503000C006C00E814004480160BFF34F8FBFF32C
:105040006F8F704700E100E080E100E0F8B586B0C6
:105050000020802189058200C04BD218126883008D
:10506000CA50401C3028F6D3BD4840680121014396
:10507000BB4841604068C107C90F00910098B9481A
:10508000016803229143016001680A43026000261F
:10509000B5490E8000F0D2FF00F04EFB142101A8AC
:1050A00000F0DCFF8020C003AD4909680143AC4A31
:1050B00011601168084000900098802080021168FB
:1050C0000143116011680840009000983120019060
:1050D0000296039601A99020C00500F0C7FF0220A8
:1050E0000190882040030290039601A99020C005FA
:1050F00000F0BCFF002201210520FFF7DAFD0520AA
:10510000FFF7DBFDBE4D2800443001F035F9BD4806
:10511000686496200001A864EE642E656E650C201C
:10512000A865EE652E666E66AE662800443001F016
:10513000EDF8002801D000F0C7FCB34C0122211D7E
:105140002800443001F077F9B048E064032020657E
:10515000AF48A065AF48606520004C3001F026FEE6
:10516000002801D000F0B0FC00F036FCE671AA483F
:105170000590032069460870642619E00120E0715B
:105180000020E065287000F027FCA448FFF7EDFD43
:10519000E0790028EDD0022800D1F5E000F0BEFB58
:1051A000F6E7642000F06FFC20004C3001F029FE8F
:1051B0003000461E0006F4D169480169802252047D
:1051C0000A430261FA267600A079002804D107215B
:1051D0002800C83000F0DEFB3000461E80B20028F8
:1051E0003CD0012000F04FFC20004C3001F009FEC3
:1051F000A0790028F0D14021C24800F02FFF032001
:105200006946087000204880487001A800210022EB
:1052100006C006C0FA26760006212800D03000F02D
:10522000B9FB3000461E80B2002800D19EE001206C
:1052300000F029FC20004C3001F0E3FDA0790028AB
:10524000EFD1B04E40223100281DFFF7B9FC4021BC
:10525000300000F003FF00202A1D0DE0A071684619
:105260000078401E69460870684600780028C6D05D
:10527000FA267600ABE70800411CC0B2105C20287B
:10528000F9D1BC4A6846C07806E0C6B29355401CC6
:105290000023C6B29355401C2B1DCEB29B5D491C0A
:1052A000202BF2D16A46527803E003AED7B2F35511
:1052B000521C2B1DCEB29B5D491C202BF5D16A469A
:1052C000927804E001AED7B2F355491C521C2B1D55
:1052D000CEB29B5D0D2BF5D1032103AA525C1300C6
:1052E0001E00303E0A2E01D2303A03E0413B1A2B19
:1052F00002D2373A03AB5A54491C0629EDDD03218B
:1053000001AA525C13001E00303E0A2E01D2303A30
:1053100003E0413B1A2B02D2373A01AB5A54491CE5
:105320000629EDDD03A94A7912018B79D218B04B19
:105330001A72CA78120109795118597201A94A7969
:1053400012018B79D218AA4B9A72CA781201097984
:105350005118D972801CA749087012E0003000086B
:10536000141002400000014000170020A0716846A0
:105370000078401E6946087068460078002800D012
:1053800040E70120E07109E740206946088000F00D
:10539000E5FA0020A07101F03FFD00F00BFBA079C1
:1053A00000283DD1207A01280BD1002020720598D9
:1053B00002882270D2B29049184800F0F5FD012011
:1053C000A0710020206620219020C00500F07EFF03
:1053D000002800D076E1E065884800685821405AEE
:1053E000000400D479E12878000707D520004C306C
:1053F00001F007FD2878F7210140297071E100BF15
:10540000C000002000440040C40A002000300040DA
:10541000FF0F0000E2040000AE080020000600209C
:105420001026022800D081E004272878800723D5A1
:105430006878042811D170480078F1280DD16E4A9F
:105440005078002105E05318DB7826000C367354A1
:10545000491C8142F7DB010063E00322B149664841
:1054600001F0FCFC00281DD00322AF49624801F086
:10547000F5FC00280AD139E00422AC495E4801F06D
:10548000EDFC002803D1287806432E70F6E00322B5
:10549000A449594801F0E2FC00280DD128780221E6
:1054A000014329700120687003229E4920000C30BE
:1054B000FFF786FB032134E04F4803229A4901F0AD
:1054C000CDFC002819D128780221014329709620AB
:1054D000C00100F06CF96846068000F07DFA642097
:1054E00000F0D1FA01F098FC00F064FA0820A071F5
:1054F0001F20FFF791FD6F70C0E00020A1783E4BA8
:1055000003E000BFAC0B0020401C2278904206DA7A
:105510001A5C26000C363254491C0D2AF4D1A170B5
:10552000A17820000C3000F035FAA7E0002705280C
:1055300045D11F20FFF779FD6E78677128788007C5
:105540002AD504227BA1A94801F088FC002818D0A4
:10555000042200BF77A1A64801F080FC002810D0EB
:10556000032200BF72A1A14801F078FC002803D1FA
:10557000052611E0AC0100202878FD2101402970AA
:105580000AE0012E01D1022606E0032E04D10426F2
:1055900068A0964902680A60402294492000683059
:1055A000FFF70EFB6E70082221006831B64801F04B
:1055B00026FD0620A0711F20FFF72EFD5EE00728C4
:1055C0001ED1607908306071C1B26A46128891427A
:1055D00001D3082032E08006800E6071082221008D
:1055E00068310918A84801F00AFD062026E000BF2E
:1055F000DC010020A80100206C0B00200C0300201F
:1056000008283BD100F0AAF92878800735D56878BA
:10561000022815D1BF48696CC860052000F033FA34
:1056200000F0DAF9642000F02EFA01F0F5FB00F04A
:10563000C1F903206870684606800420A0711DE04F
:1056400005281AD1B448696CC860052000F01BFA1F
:10565000FA20800000F017FA2878FD210140297017
:1056600000F0BAF9642000F00EFA01F0D5FB00F06A
:10567000A1F96F70402069460880A771012000F0F1
:10568000CDF92878800713D5012000F0D2F9A2497E
:1056900088420CD9002020666878042807D10020B1
:1056A00068700820A0712878FD21014029708AE6E1
:1056B000012000F0BEF9FA218900884201D900F0EA
:1056C00003FA80E6002000F0A9F9002000F0B1F90B
:1056D000FF21F631884200D350E520004C3001F024
:1056E00090FB2878800606D520004C3001F089FB1D
:1056F0000520FFF791FC2878400703D520004C30A7
:1057000001F07FFB2878C00600D448E62878EF2116
:1057100001402970FC20BE49088072B6FFF7E3FA09
:10572000FEE70000B87A0008BC7A0008C07A0008DA
:10573000454F460041434B0D30B595B0302109A887
:1057400000F08CFC684600210022002300241EC0CB
:10575000142100F083FC012009900A900224119486
:1057600000041290000113900025149509A801F07F
:1057700097FC002801D000F0A7F9072000900194C1
:10578000029503950121684601F056FE002801D0DC
:1057900000F09AF9200404908020089004A801F0F9
:1057A00013FF002801D000F08FF915B030BD80B58F
:1057B000A54996221201904201D1574803E0D20038
:1057C000904202D15348496CC860052000F05BF953
:1057D00001BDA249884207D1B2488179032903D18A
:1057E0000021C1700421817170470000AC0B0020C2
:1057F000AD0B0020F8B500270024934E3100443152
:1058000088422ED1A74DA879042822D1E8788206B3
:10581000920EEA702979A4488154521C0D290FD1A7
:10582000D2B2402A04DA4021891A801800F016FC0E
:10583000E879022802D10520A8710AE0AF7108E0DA
:10584000EA7006E0641C80208002844201D300F0EC
:105850003BF90122291D3000443000F0ECFD002806
:10586000F0D1F1BD784B19004431884200D0704727
:1058700080B500217422815401228C4918004430E3
:1058800000F0D9FD01BD000000060020022800D074
:105890007047F8B500F0C2F8854C25786D1C25706E
:1058A000022000F0C6F8052830D2EDB2042D30DB1E
:1058B00000252570022000F0C9F87E4EBC20800033
:1058C00037183868A721890040188168012919D143
:1058D0000078042816D1B069002804D07648016801
:1058E0000622914301603000FEF741FA0A2000F0E1
:1058F000CAF83000FEF740FA3868A92189004550FF
:10590000012060600520FFF790FBF1BD022000F050
:105910009DF8F1BDC4090000204E000010B5614C97
:1059200002E0002000F092F820004C3001F069FA0B
:1059300020219020C00500F0C9FC0028F1D100F022
:105940006DF8002000F075F8FF21F6318842EBD3A6
:10595000002000F07BF80220E07110BD10B540215E
:10596000564800F07BFB4F4C40212000683000F08F
:1059700075FB402120000C3000F070FB40214A48AC
:1059800000F06CFB0020E06520706070A070E0709B
:10599000607110BD80B50A000100304800F00BFDB9
:1059A000002801D1032002E0FFF7D8FF002000F01B
:1059B00024F801BD80B51F20FFF72EFB3D4800688D
:1059C000802109025822825A0A4204D15822825A5E
:1059D00011435822815201BD80B51F20FFF725FBDE
:1059E000344800685821415A090405D55821415AC4
:1059F0004904490C5822815201BD2A4988717047D7
:105A00002848807970472D487047264908707047AC
:105A1000001700200120234908727047032807DA85
:105A2000204980000818C16D802212060A43C26511
:105A30007047032806DA1B4980000818C06D400033
:105A40004008704700207047C0000020032804DA97
:105A50000021144A80001018C1657047040100201D
:105A600010B5104CA07901280CD100211448FEF784
:105A7000EEFA6178081860702178C0B2884201D3CC
:105A80000220A07110BD38B5050001F023FE04000E
:105A9000002D01D10B48057801F01CFE001BA84227
:105AA000FAD331BDC40A0020AC0B0020C80A002084
:105AB000000C00200C03002010ED00E06C0B002017
:105AC000000600209801002080B572B6FFF70BF9A0
:105AD000FEE7FEE7F8B504000E00A72080002518B9
:105AE00030786021014009D0202901D040292AD1F5
:105AF00031002000AA69926890472FE10020022718
:105B0000717809291FD802A24900525A974400BF50
:105B100006023602B0013002B00122011400B001C9
:105B2000E4016A01694608807088010A012900D1F0
:105B300079E002296BD003292ED0062924D0072929
:105B400001D1207C002800D0BAE06846A969096B21
:105B500088470721417069460988002910D0F188DB
:105B6000002910D069460988F288914200D91100B5
:105B70006A46118069460A880100200000F002FA96
:105B8000F0880028B9D1E6E0207C002853D168468F
:105B9000A969496B8847DEE7C0B205284BD802A146
:105BA000095C49008F4400BF2B1B13230B0368695A
:105BB0008269002A06D06946207C9047CBE7686955
:105BC0004269002A7CD06946207C9047C3E7686917
:105BD0000269002A74D06946207C9047BBE7686957
:105BE000C268002A6CD06946207C9047B3E7686998
:105BF0008268002A64D06946207C9047ABE76869D8
:105C00004268002A5CD06946207C9047A3E7A969D6
:105C1000207C0028684603D1896A884747709AE744
:105C2000C96A8847FAE76946207C6A691268904722
:105C300091E7B088002843D1F088002840D17088CF
:105C400080283DD24006400E694608702878032817
:105C500036D068460078A870684601782000FEF7C4
:105C6000DBF9200000F0B5F968460078002801D083
:105C70002F7073E00120287070E07188384A11702D
:105C800011780A00022A1BDA2B78022B1DD0032B75
:105C900026D1002905D12F7060602000FFF797F80A
:105CA00059E061688A4256D0C9B22000FFF78FF8E8
:105CB0002B48017861602000FFF77BF802284AD169
:105CC0003100200000F032F948E0002943D0626042
:105CD000032028702000FFF76CF80228F0D03AE08B
:105CE0003100200000F022F91D4801782000FFF764
:105CF0006EF833E0F1880129E2D12978491E0129A3
:105D000004D9891EDCD10122211D15E0A0600122E9
:105D10002100083110E02878401E0228D0D8F088F1
:105D20000228CDD10120E060A868002801D003201E
:105D3000E060022221000C31200000F023F90DE088
:105D40007088012805E02978491E0229B8D8718891
:105D5000012903D1A860200000F03BF90020F2BD2A
:105D6000080C002038B505000C00207860210140A7
:105D700003D0202901D0402918D1A72080002A185B
:105D80001078401E022811D8A088C0B202280DDA6F
:105D900021002800926992689047E188002909D182
:105DA000002807D1280000F014F903E021002800A2
:105DB00000F0BCF8002032BDF8B504008B88DBB2DF
:105DC0000878A7229200A21860256026064008D015
:105DD000202E01D0402E78D1200092699268904701
:105DE00076E00540202D04D120009269926890470A
:105DF000F2BD7F204D78002D37D0012D15D0032D19
:105E000063D11078022816D003285ED14888002874
:105E100027D1002B25D0802B23D0C888002820D163
:105E200019002000FEF7D6F81BE01278022A02D0F3
:105E3000032A0DD049E0002B47D0802B45D0190014
:105E40002000FEF7C7F880212000FEF7C3F83FE0EE
:105E5000498800293CD11900014202D02000FEF7F8
:105E6000C2F8200000F0B5F832E01840142568436D
:105E70002618AA20400035181800802738406F46A1
:105E8000387000201278022A02D0032A11D01CE0B8
:105E9000002B01D0802B18D169460978002902D047
:105EA0003100143100E029000860200000F06AF899
:105EB0000EE01A07120F14277A43A2186F463F7894
:105EC000002F07D09269002A0ED1200000F02EF892
:105ED0000020F2BDAC2676009259002AF5D0002BA6
:105EE0000CD0802B03D109E035001435F7E71900F9
:105EF0002000FEF781F8002800D00120286002224F
:105F00002900D2E70A7802704A7842708A78CB7802
:105F10001B02D21842800A794B791B02D218828068
:105F20008A79C97909025118C180704710B50400F7
:105F30008021FEF74FF800212000FEF74BF810BD3E
:105F4000002800D1704770B504000023002501E04F
:105F50006D1C641C2678002EFAD12D06EC0DA41CB5
:105F6000148012780A7003224A70022206E0D5B229
:105F70004C55401C521CD5B24B55521C0478002C79
:105F8000F5D170BD10B513000222A524A400025162
:105F9000C36103620A000021FEF747F8002010BD2C
:105FA00080B513000A001BE010B513000322A524DE
:105FB000A4000251AE2252008218136053600A00FE
:105FC0000021FEF73BF8002010BD80B513000A0049
:105FD00012E080B50421A522920081500023002206
:105FE0000021FEF722F8002002BD80B50521A52280
:105FF00092008150002300220021FEF71FF80020AC
:1060000002BDFEE7094214D088420FD30122030CDF
:1060100001D100041204002300185B418B4200D31D
:106020005B1A5241F8D3190010007047010000209C
:10603000704708B501F054FB08BDFEE780B506487F
:10604000016810220A430260002001F04BFB01F0BE
:106050006BFB002002BD000000200240002200BFB8
:10606000094202D0491E4254FCD17047FFB50022BC
:106070000F2302932CE0052402E09D4DA842FAD1A3
:106080006D462D78AC403443019D2C60994C2668B8
:10609000DC4326404D68ED0300D51E43954D2E6030
:1060A0006E6826404F68BF0300D51E436E60AE6821
:1060B00026404F68FF0200D51E43AE60EE683440B4
:1060C0004E68B60202D526001C003443EC60521C18
:1060D0000B681C00D44000D18FE001249440234081
:1060E000F5D055000327AF40FE4301964E68B70731
:1060F000BF0F012F03D0B607B60F022E0ED187684F
:10610000019E3E40CF68AF40374387604668A64354
:106110004C68E706FF0F97403743476094006E4690
:1061200074700C79A407A40F032C26D0C468019EB8
:1061300026408C68AC403443C4600C79A407A40F9B
:10614000022C1AD1D408A4000419266A03966E46BC
:1061500077781C263E406F463E70039EB446029FF1
:106160006E463678B7406646BE43B4460F696E4603
:106170003678B74066463743276207680324019E96
:106180003E404F682740BC462F006546BD40354322
:1061900005604D6826042E4099D00125564E36687C
:1061A0002E43554F3E603E682E400196019E534E51
:1061B0009708BF00F6190196366803966E46777801
:1061C0000C263E406F463E70039EB446029F6E46CC
:1061D0003678B7406646BE439027FF05B84201D1E6
:1061E00000244DE7464FB84201D1012448E7454D10
:1061F000A84200D041E7022442E7FFBDFFB50323D8
:10620000029301230193039100213AE0052703E063
:10621000374DA842FAD1029F8D00B4460C262E407D
:10622000B740BC4511D1D643324A12683240314F93
:106230003A607A6832407A60BA683240BA60FA6886
:106240001640FE601A68A2431A60029B4A009340FF
:10625000DA43036813400360CB089B00C3181C6A31
:106260000F261C272F40BE40B4431C62C368134056
:10627000C3604368009CA343436083681A40826004
:10628000491C039ACA4020D0019A8A400092039B7D
:106290001A40F5D0194B8C08A4001B191E680F2456
:1062A0008D000C272F40BC4026409025ED05A842CC
:1062B00001D10027B0E7124DA84201D1019FABE701
:1062C000104DA842A4D10227A6E7FFBD00690840EF
:1062D00000D00120C0B270470B4A1368034000D1C0
:1062E000704780B51060FFF7D1FA01BD00000000D3
:1062F000000C004800040140181002400800014052
:1063000000040048000800481404014038B50400A7
:1063100014D0250074356868002803D12870200047
:1063200001F01CFA24206860206801680122914372
:106330000160200000F022FA012801D1012032BDC5
:10634000606A002802D0200000F09DFA20684168B1
:10635000084A0A40426020688168082291438160AF
:10636000FFE72068016801220A430260200000F074
:10637000F1FA32BDFFF7FFFF70B5040001D1012033
:1063800070BD2500743524206860206801680122F2
:1063900091430160002620680660206846602068FE
:1063A0008660200001F00FFAEE606E60AE60266637
:1063B0002E70002070BD70B5030074335C68202C13
:1063C00037D100290BD0140009D0846880256D01D5
:1063D000AC4206D10669002E03D1CE0701D50120BB
:1063E00070BD7426865D012E23D001261E70C16407
:1063F000010050310A804A8000228A61DA60212639
:106400005E60AC4204D10469002C01D1234C00E051
:10641000234C8C611A70EFF31081012282F31088F3
:106420000068026880231343036081F31088002012
:1064300070BD022070BD70B5030074339C68202CC1
:106440002AD100290BD0140009D0846880256D0161
:10645000AC4206D10469002C03D1CC0701D5012040
:1064600070BD7424045D012C16D001241C7000231F
:10647000036603685B681B020BD5EFF3108384F39C
:106480001088046825688026F6042E43266083F36E
:10649000108800F00FFB70BD022070BD1F6C00085B
:1064A000FD6B0008F8B584B0040020680190C06955
:1064B00021680968019A92680092AB4A024025005F
:1064C000583520230B4002932023034003930026DA
:1064D0004027002A0AD1002B0DD0029A002A0AD0A8
:1064E000E968002901D0200088473AE1009AD207E4
:1064F00002D49E4A0A407AD0C20707D5CA0505D5FC
:106500000122019B1A62AB6A1A43AA62820709D56B
:10651000009AD20706D5022223681A62AA6A0423C7
:106520001343AB620422104208D0009BDB0705D561
:1065300023681A62AA6A02231343AB62082210423C
:106540000AD0029B002B02D1009BDB0704D52368F5
:106550001A62AB6A1A43AA627A01104007D0480156
:1065600005D520680262A86A20210143A962A86AB1
:10657000002832D00398002807D00298002804D0C1
:10658000E968002901D020008847A86A2168896845
:10659000394002D12821014024D0200000F0E8FA3F
:1065A00020688068074019D0EFF31080012181F343
:1065B000108821688A6840239A438A6080F3108893
:1065C000A86900280AD06A494163A86901F03DF929
:1065D000002802D0A869416B8847C2E02000FFF77D
:1065E00041F9BEE02000FFF73DF9AE62B9E0AA68CC
:1065F000012A00D094E01022104200D0114200D1B4
:106600008EE0019802621020C0430121C943226834
:106610009268174049D0AA6913685B689BB2002B47
:10662000E4D05827E75BBB42E0DA6B809269202A0E
:1066300035D0EFF310820092012282F31088226895
:1066400013684C4F1F401760009A82F31088EFF3D5
:106650001082012383F3108823689F683940996072
:1066600082F31088EFF31081012282F310882268F0
:1066700093684027BB43936081F3108820216962AF
:10668000AE60EFF31081012282F310882268136854
:106690001840106081F31088A86901F0B5F85820FF
:1066A000205A6988411A89B236E05822A25A6B886A
:1066B000D21A6B461A806A88002A52D06A4612881B
:1066C000002A4ED0EFF310820192012282F310884B
:1066D00022681368284F1F401760019A82F31088C0
:1066E000EFF31082012383F3108823689F683940F9
:1066F000996082F3108820216962AE60EE60EFF34A
:106700001081012282F310882268136818401060FB
:1067100081F3108868460188200001F0BAF820E073
:106720008022104207D00A4005D02969002918D0DC
:106730002000884715E0384013D00F4011D0EFF308
:106740001080012181F3108821680A6840239A4350
:106750000A6080F31088202028622E612000FFF755
:1067600038F805B0F0BD00000F080000200100045B
:10677000E96B0008FFFEFFFFDFFEFFFFF8B5050035
:1067800000260024286801688A4A0A40A968114343
:106790002A690A4369691143EA690A430260416848
:1067A000854A0A40E968114341608168834A0A408A
:1067B000A96911432A6A0A438260102280498842EB
:1067C0000FD1804800688007800F0DD0022806D0C6
:1067D00003D3032809D1022207E0042205E008229E
:1067E00003E0B149884200D10022B04FB048802177
:1067F0000902EB698B4222D1002A06D0022A19D065
:10680000042A19D0082A04D038E000F0ADFE0100B7
:1068100035D06A684800510840181100FFF7F2FBB4
:1068200080B201001039B94228D207400007400F5A
:1068300038431BE00100ECE700F080FEE7E7002AA8
:1068400006D0022A08D0042A13D0082A14D015E052
:1068500000F08AFE002812D069684A088018FFF705
:10686000D1FB80B201001039B94207D22968C86053
:1068700005E000F063FEEDE70800EDE701246E6639
:10688000AE662000F2BD2421415CC90706D501682F
:106890004A68B04B1340826A1A434A602421415C23
:1068A000890706D501684A68AB4B1340C26A1A4390
:1068B0004A602421415C490706D501684A68A74B14
:1068C0001340026B1A434A602421415C090706D534
:1068D00001684A68A24B1340426B1A434A60242164
:1068E000415CC90606D501688A689E4B1340826BDD
:1068F0001A438A602421415C890606D501688A68AA
:10690000134B1340C26B1A438A602421415C490631
:1069100011D501684A68944B1340026C1A434A60CF
:10692000026C80235B039A4205D14A688F4B134067
:10693000426C1A434A602421415C090606D501686D
:106940004A68A24B1340806C1843486070470000AF
:10695000FFDFFFFFF8B5040000257430C56000F0CC
:10696000B9FE07009A4E20680068000709D5009616
:106970003B00002280218903200000F025F8002838
:106980000DD12068006840070BD500963B0000221F
:106990008021C903200000F017F8002801D003204F
:1069A000F2BD2100743120204860886025660D709A
:1069B0000020F2BDF369FFEFFFCFFFFFFFF4FFFF01
:1069C0000038014030100240FEB5089F80242401A9
:1069D0000025060001916846027002933068C06984
:1069E000019901400198814201D1012000E000207D
:1069F00069460978884254D10020C0438742EDD0CF
:106A000000F068FE0299401A874201D3002F1FD17F
:106A1000EFF31080012181F3108831680A686D4B13
:106A200013400B6080F31088EFF31080012181F395
:106A3000108831688A6801239A438A6080F310883D
:106A40003000743020214160816005700320FEBD5C
:106A5000306800684007C1D53068C0692040BDD0AB
:106A600030680462EFF31080012181F310883168EF
:106A70000A68584B13400B6080F31088EFF31080C6
:106A8000012181F3108831688A6801239A438A6062
:106A900080F3108830007430202141608160C16033
:106AA000D3E70020FEBD000000440040F0FF0000DE
:106AB00000127A00F0B54165010058310A804A8021
:106AC0000022CA608668FF2480235B019E4204D1B5
:106AD0000569002D11D1404C0FE07F25002E03D118
:106AE0000669002E06D108E01C04A64207D10469FD
:106AF000002C01D18D8003E03F248C8000E08A804F
:106B00008A6222244C62EFF31084012585F31088F9
:106B10000568AE6801273743AF6084F31088846846
:106B20009C4204D10369002B01D12C4B00E02C4B7B
:106B3000CB600A77EFF31081012282F3108800689E
:106B4000026890235B001343036081F310880020E8
:106B5000F0BD0000FFFFFDFFFFFFFEFFFFFFFBFF9B
:106B6000FF7FFFFFFFEFFFFFFFFFEFFFFFFF9FFF35
:106B700010B5EFF31081012282F3108802681368C8
:106B8000184C1C40146081F31088EFF3108101222F
:106B900082F31088026893680124A343936081F311
:106BA0001088016E01290BD1EFF31081012282F3CD
:106BB0001088026813681024A343136081F31088BF
:106BC0002021C16700210166416610BDFFFFF7FF6C
:106BD000FFFFFF015FFEFFFFFF010000FD6C0008EB
:106BE000836C0008DFFEFFFF80B5406A0100523170
:106BF00000220A810A80FEF735FE01BD816F21293E
:106C000000D0704710B55221415A002900D11FE031
:106C1000C16C097802681185C16C491C11E0816F53
:106C2000212900D0704710B55221415A002900D1C6
:106C30000EE0C16C0988C905C90D02681185C16CD7
:106C4000891CC1645221415A491E5222815210BDF1
:106C5000EFF31081012282F3108802681368802408
:106C6000A343136081F31088EFF31081012282F3B4
:106C700010880068026840231343036081F3108882
:106C800010BD38B50100583102684B6A222B30D153
:106C9000928C8B881340426D1370426D521C42657A
:106CA0004A88521E4A804A88002A26D1EFF3108271
:106CB000012383F3108803681C682F4D25401D6055
:106CC00082F31088EFF31082012383F310880368A6
:106CD0009C680125AC439C6082F3108820224A62A4
:106CE0000022CA608B68012B00D147E0FEF782FDCD
:106CF00031BD906908210143916131BD38B5010072
:106D0000583102684B6A222B30D1928C8B88134009
:106D1000426D1380426D921C42654A88521E4A8021
:106D20004A88002A26D1EFF31082012383F31088CA
:106D300003681C68104D25401D6082F31088EFF336
:106D40001082012383F3108803689C680125AC43FB
:106D50009C6082F3108820224A620022CA608B68FD
:106D6000012B00D10AE0FEF745FD31BD90690821F5
:106D70000143916131BD0000DFFEFFFF8A60EFF348
:106D80001081012282F31088026813681024A34343
:106D9000136081F310880168CB69234000D00C6236
:106DA0005821415A00F075FD31BDFEE770B5050070
:106DB00001D1012070BD28681449016014490160A7
:106DC00069684160A968816000F084FC07240600BE
:106DD0002868C16821400AD000F07CFC801B28286C
:106DE000F6D32868C0682040F2D0032070BDE9685F
:106DF00002698A4201D0016101E006490160002078
:106E000070BD04490068016000207047CCCC0000D0
:106E100055550000AAAA000010B50D4C00220D49DE
:106E20002000FDF78BFF002801D0FEF74DFE0A4938
:106E30002000FDF7AFFF002801D0FEF745FE20003F
:106E4000FDF7B2FF002801D0FEF73EFE10BD00BFE7
:106E500000060020C0010020F401002010B404E06E
:106E6000002C0ED0401C491C521E002A09D00B7861
:106E700004789C42F4D002D20020C04302E00120FA
:106E800000E0002010BC704710B504000823032266
:106E90008121FDF78AF80120E0621020FDF7DEF87D
:106EA000AE2189006050002801D1022010BD0021D0
:106EB0000173002010BD38B505008121FDF781F870
:106EC0000024EC62AE2080002D182868002802D033
:106ED000FDF7DCF82C60002032BDF8B50400A520D9
:106EE00080002618706A00276A46178002250A78F3
:106EF0006023134040D0202B7BD14A78012A16D042
:106F0000022A11D0032A09D0092A1ED00A2A07D042
:106F10000B2A6ED14988C9B201606EE0012255E0AA
:106F20004988090A416068E00122011D56E0356088
:106F3000708BE061206250480188504A0A405049F5
:106F40005140504A0A43028057E0FEF759FD00289D
:106F50000FD1FEF758FD0500768BF0B2FEF755FD18
:106F6000F2B229002000FFF71FF80120FEF745FDCF
:106F700043E0FEF74FFD40E04A78002A06D0062A9B
:106F80000DD00A2A24D00B2A2CD032E0307A0328E4
:106F90002FD1022269462000FEF7F4FF2DE0488839
:106FA000020A3948222A0BD1CA881C2A00D31B2284
:106FB00036490978294201D0283007E00C3005E035
:106FC000212A16D1CA880A2A00D30922010005E025
:106FD000327A032A0DD10122010008312000FEF788
:106FE000D1FF0AE0327A032A03D14988C9B281600D
:106FF00003E02000FEF79AFF02273800F2BD10B52B
:107000001300A72292008418E2692478032C08D187
:10701000147B002C05D1012414730A008121FDF793
:1070200004F8002010BD2221018019481749097871
:10703000890700D524307047222101801548704708
:10704000222101801448704738B505000C00FEF776
:10705000D7FC0021AE229200AA581173012C04D152
:10706000062802D10720FEF7C8FC002032BD0A2105
:1070700001800A4870470000005C0040BFBF00006C
:107080001010000080800000BC020020C000002022
:107090002C0200207402002098020020000300202F
:1070A000FEB506001BD0B04C3078C00719D580273C
:1070B000BF0260680C21014004290BD07808616888
:1070C0000C220A40082A47D16168C02252020A40B5
:1070D000824241D12068074003D07068002800D167
:1070E0009FE1307880071FD5F827FF4360680C21A7
:1070F00001400CD060680C21014008295ED1606815
:10710000C0214902014080200002814256D12068FE
:10711000800703D5F068012800D082E1206807408D
:107120003069C000384320603078000777D50227E7
:10713000F0690028606A63D001210143616200F0B8
:10714000C9FA0500606A384069D100F0C3FA401BF3
:107150000228F7D90320FEBD7368012B09D0B3497B
:10716000B34A002B09D0052B07D1216882000A43BE
:10717000226021680843206005E020680240226008
:10718000206801402160706800280BD000F0A2FA4E
:10719000050020683840A4D100F09CFA401B652807
:1071A000F7D3D7E700F096FA05002068384098D06A
:1071B00000F090FA401B6528F7D3CBE7F068002871
:1071C00020680ED001210143216000F083FA050000
:1071D00020688007A2D400F07DFA401B0228F7D96E
:1071E000B8E701218843206000F074FA05002068A8
:1071F000800799D500F06EFA401B0228F7D9A9E75D
:1072000001218843606200F065FA0500606A384039
:1072100005D000F05FFA401B0228F7D99AE704274F
:107220003068384062D000200190B806E169014022
:1072300008D1E1690143E161E169084000900098EB
:10724000012001907B480068C00512D4794800688D
:10725000A10D01437748016000F03CFA0500754834
:107260000068C00505D400F035FA401B6528F6D348
:1072700070E7B068012808D0002801D1206A09E031
:107280000528206A06D138432062206A0121014383
:10729000216205E0012188432062206AB843206210
:1072A000A4480090B06800280CD000F013FA050044
:1072B000206A800713D400F00DFA401B0099884221
:1072C000F6D347E700F006FA0500206A800706D5E6
:1072D00000F000FA401B00998842F6D33AE7019883
:1072E000002803D0E06994490140E1613078C0068C
:1072F0001DD57069F825ED43012837D1606B074330
:107300006763606B01210143616300F0E3F90700EB
:10731000606B800705D400F0DDF9C01B0228F7D9A7
:1073200018E7606B0540B069C00028436063306AAD
:10733000002878D061680C220A40082A5CD0802797
:10734000BF048F490228206848D10140216000F025
:10735000C1F905002068384022D000F0BBF9401B7D
:107360000228F7D9F6E600BF001002400421C94305
:107370008842606B02D101406163D2E707436763D3
:10738000606B01218843606300F0A4F90500606B25
:107390008007CCD500F09EF9401B0228F7D9D9E62A
:1073A000E06A0F218843F16A0143E1626068754930
:1073B0000140B06A0843716A01436160206879083E
:1073C0000143216000F086F90500206838402AD189
:1073D00000F080F9401B0228F7D9BBE6014021608C
:1073E00000F078F90500206838401CD000F072F9F0
:1073F000401B0228F7D9ADE6012812D06068E16A87
:10740000C02252020240736A9A420AD10907090F48
:10741000F26A914205D1F02189030140B06A8142AC
:1074200001D00120FEBD0020FEBD0000FFFFFBFFDC
:10743000FFFFFEFF00700040F8B5040060D000912F
:1074400051480068C107C90F009881420CD24E48CC
:10745000016801229143009A0A4302600068C10753
:10746000C90F009881424BD12168484D022001424A
:107470000CD0490704D56968E022D2000A436A604B
:107480006968F0229143A2680A436A600127216873
:10749000394025D06168012902D12868800303E0C2
:1074A000022903D12868800103D429E02A6810400A
:1074B00026D06868032290430143696000F00AF90E
:1074C000060068680C21014060688000814207D096
:1074D00000F000F9801B17498842F2D30320F2BD67
:1074E0002948009902683A4091420BD20168B94399
:1074F000009A0A430260006807400098874201D062
:107500000120F2BD2078400705D568682049014078
:10751000E0680843686000F011F81E496A681206C6
:10752000120F895CC8401C490860002000F0DAF89E
:107530000020F2BD89130000FFFFFFEF30B51749AF
:107540000C6817480C222240082A0CD10F2200BFD9
:1075500015A3A50C15405D5D17A3896A0A40995CC7
:10756000FEF750FD684330BD0B4800680D490B4ADB
:1075700012685205520F895CC84070470000000035
:10758000FFFFFFFEFF7FC2FF00200240001002400D
:10759000FFF8FFFFA87A0008A401002004100240B1
:1075A00000127A00D07A00080203040506070809D1
:1075B0000A0B0C0D0E0F101001020304050607083C
:1075C000090A0B0C0D0E0F10F8B504003B4D206896
:1075D000C00356D500200090802040052968014056
:1075E00008D1296801432960296808400090009863
:1075F00001200090324F3868C00510D43868A90DBA
:107600000143396000F066F806003868C00506D40A
:1076100000F060F8801B6528F7D30320F2BDC0207E
:10762000800069680140274F00291ED06268104021
:1076300081421AD0686838406968802252020A4341
:107640006A606968204A0A406A606860C0070CD5B1
:1076500000F040F806006868800706D400F03AF8A9
:10766000801B1A498842F6D3D7E7686807406068EC
:10767000384368600098002803D028681449014006
:1076800029602078C00705D5686903218843A1686F
:10769000014369612078800605D568691021884317
:1076A000E168014369612068800305D5686980212C
:1076B00088432169014369610020F2BD1C1002402A
:1076C00000700040FFFCFFFFFFFFFEFF891300007A
:1076D000FFFFFFEF01484068704700BF980100209E
:1076E0007047FEE738B505000D4CFA208000217880
:1076F000FEF788FC01000B480068FEF783FCFDF7ED
:10770000FBFA00280AD1042D08D20022290000200B
:10771000C043FDF7CEFAA560002032BD012032BD86
:1077200098010020A401002081B0012030490A689E
:1077300002430A600A6810400090009880204005CB
:107740004A6802434A604968084000900098294806
:10775000016810220A43026001B0704710B586B07C
:107760000400142101A8FEF779FC20682249884210
:1077700027D12249802080028A6802438A608A6871
:1077800002400092009A0A6802430A6009680840B1
:10779000009000980C20019002200290002003909D
:1077A000032004900120059001A99020C005FEF758
:1077B0005DFC002200211C20FDF77BFA1C20FDF758
:1077C0007CFA06B010BD00680B49884200D07047B3
:1077D00080B50B4801680B4A0A4002600C219020DA
:1077E000C005FEF70BFD1C20FDF770FA01BD00007F
:1077F00018100240000001400044004014100240F4
:107800001C100240FFFFFDFF10B500212122825C09
:10781000022A05D00422826320228154012010BD57
:10782000026813680E24A3431360026813680124DE
:10783000A34313600122036C9C40C36B5C60212353
:10784000C25420228154002010BD70B500220024B3
:1078500001212123C35C022B03D004228263012473
:1078600015E003681D680E26B5431D6003681D689A
:107870008D431D60036C01259D40C36B5D6021231A
:10788000C15420214254416B002900D08847200078
:1078900070BD70471220088013487047042008808C
:1078A0001248704710B5124802780A80114C2270B5
:1078B00003216170011DA01CFDF79CF9200010BD83
:1078C00010B50A000B4C21000DA008E010B50A000D
:1078D0000DA002E010B50A000FA0064C2100FEF733
:1078E0002FFB200010BD0000DC010020F001002073
:1078F000A8010020C408002010B50A0009A0ECE788
:107900004F4D524F4E00000030303030303030306C
:10791000303031410000000048494420436F6E661A
:107920006967000048494420496E74657266616366
:1079300065000000FEE7FEE77047704780B500F085
:1079400023F800200D49820089180A68002A01D511
:10795000521C0A60401C0328F4DB01BD80B50220E4
:10796000FEF7BAFC01BD80B50548FEF79BFD01BDE1
:1079700080B50448FBF738FC01BD0000200B002057
:10798000040100200C030020024841680278891895
:107990004160704798010020094880F3088804205E
:1079A0000168090E1F22914205D10648012101609C
:1079B0000548002101600548804705480047000050
:1079C000101000201810024000000140A57A0008A5
:1079D000C57A000870B40123002413E00168001D7B
:1079E000194202D04D466D1E49190C60091D121F27
:1079F000042AFAD20D00960701D50C80AD1C1A405E
:107A000000D02C700268001D002AE7D170BC7047BE
:107A100010B5074979441831064C7C44163404E00B
:107A2000081D0A68891888470100A142F8D110BDD5
:107A300008000000240000009DFFFFFF0009000077
:107A40000C030020000000005BC6FFFFA000000048
:107A5000C8010000C000002000F00DF8002801D08F
:107A6000FFF7D6FF00BF00BF002000BF00BFFDF73B
:107A7000EDFA00F002F80120704780B500F002F83E
:107A800001BDFEE70746384600F002F8FBE7FEE7D7
:107A900080B500BF00BF024A11001820ABBEFBE753
:107AA00026000200704700000000000000000000F7
:107AB000010203040607080946440D0046450D006F
:107AC0004446550D00BF00BF00BF00BFFFF7C4FF15
:107AD0000000000001020304FEE7FEE7FEE7FEE708
:107AE000FEE7FEE7FEE7FEE7FEE7FEE7F2B600018F
:107AF000500F5553423030320D0055444553430D1D
:107B0000000001D92204081002127A001308300D77
:107B10005500530042002D00630061007200642292
:107B20001003957800089D0412C10412A50412CD1B
:107B30000412D50412F904100212010002251002E9
:107B4000089005FF09230301551007040309048960
:107B50006E0008B70412DB0465408349700C6101B4
:107B6000123914122704124104126F04100809027A
:107B70002200010100E03209961301032F100109D0
:107B8000211156F00A10221B000705810308000A84
:107B9000000024F2000124E3010224F212072492DF
:107BA0000A5A1101F0190106A0FF0904A1010906F2
:107BB000150026FF007508954081820907951091F0
:107BC00082C01C32101C22401C370A06242640703A
:107BD000FFFFFFFFFFFFFFFFFFFFFFFFFFFFFFFFB5
:107BE000FFFFFFFFFFFFFFFFFFFFFFFFFFFFFFFFA5
:107BF000FFFFFFFFFFFFFFFFFFFFFFFFFFFFFFFF95
:107C0000FFFFFFFFFFFFFFFFFFFFFFFFFFFFFFFF84
:0400000508007AC5B0
:00000001FF
